{
  "contractName": "MedicineTracker",
  "abi": [
    {
      "anonymous": false,
      "inputs": [
        {
          "indexed": true,
          "internalType": "uint256",
          "name": "medicineID",
          "type": "uint256"
        },
        {
          "indexed": false,
          "internalType": "string",
          "name": "name",
          "type": "string"
        },
        {
          "indexed": false,
          "internalType": "string",
          "name": "manufacturer",
          "type": "string"
        },
        {
          "indexed": false,
          "internalType": "uint256",
          "name": "expiryDate",
          "type": "uint256"
        },
        {
          "indexed": false,
          "internalType": "uint256",
          "name": "count",
          "type": "uint256"
        }
      ],
      "name": "MedicineAdded",
      "type": "event"
    },
    {
      "inputs": [
        {
          "internalType": "uint256",
          "name": "",
          "type": "uint256"
        }
      ],
      "name": "medicines",
      "outputs": [
        {
          "internalType": "string",
          "name": "name",
          "type": "string"
        },
        {
          "internalType": "string",
          "name": "manufacturer",
          "type": "string"
        },
        {
          "internalType": "uint256",
          "name": "expiryDate",
          "type": "uint256"
        },
        {
          "internalType": "uint256",
          "name": "count",
          "type": "uint256"
        }
      ],
      "stateMutability": "view",
      "type": "function"
    },
    {
      "inputs": [
        {
          "internalType": "uint256",
          "name": "medicineID",
          "type": "uint256"
        },
        {
          "internalType": "string",
          "name": "name",
          "type": "string"
        },
        {
          "internalType": "string",
          "name": "manufacturer",
          "type": "string"
        },
        {
          "internalType": "uint256",
          "name": "expiryDate",
          "type": "uint256"
        },
        {
          "internalType": "uint256",
          "name": "count",
          "type": "uint256"
        }
      ],
      "name": "addMedicine",
      "outputs": [],
      "stateMutability": "nonpayable",
      "type": "function"
    },
    {
      "inputs": [
        {
          "internalType": "uint256",
          "name": "medicineID",
          "type": "uint256"
        }
      ],
      "name": "getMedicineById",
      "outputs": [
        {
          "internalType": "string",
          "name": "name",
          "type": "string"
        },
        {
          "internalType": "string",
          "name": "manufacturer",
          "type": "string"
        },
        {
          "internalType": "uint256",
          "name": "expiryDate",
          "type": "uint256"
        },
        {
          "internalType": "uint256",
          "name": "count",
          "type": "uint256"
        }
      ],
      "stateMutability": "view",
      "type": "function"
    }
  ],
  "bytecode": "0x6080604052348015600e575f80fd5b50610eb28061001c5f395ff3fe608060405234801561000f575f80fd5b506004361061003f575f3560e01c80633e27f71914610043578063a329c33d1461005f578063c85e766d14610092575b5f80fd5b61005d60048036038101906100589190610737565b6100c5565b005b610079600480360381019061007491906107e6565b6102b2565b6040516100899493929190610880565b60405180910390f35b6100ac60048036038101906100a791906107e6565b610480565b6040516100bc9493929190610880565b60405180910390f35b5f845111610108576040517f08c379a00000000000000000000000000000000000000000000000000000000081526004016100ff9061091b565b60405180910390fd5b5f83511161014b576040517f08c379a000000000000000000000000000000000000000000000000000000000815260040161014290610983565b60405180910390fd5b42821161018d576040517f08c379a000000000000000000000000000000000000000000000000000000000815260040161018490610a11565b60405180910390fd5b5f81116101cf576040517f08c379a00000000000000000000000000000000000000000000000000000000081526004016101c690610a79565b60405180910390fd5b5f805f8781526020019081526020015f206002015414610224576040517f08c379a000000000000000000000000000000000000000000000000000000000815260040161021b90610b07565b60405180910390fd5b5f805f8781526020019081526020015f20905084815f0190816102479190610d1f565b50838160010190816102599190610d1f565b50828160020181905550818160030181905550857f8cd049df7d3cca498744c36f9291731505aa06be3646b07ccdc2b66e4d9291df868686866040516102a29493929190610880565b60405180910390a2505050505050565b6060805f805f805f8781526020019081526020015f20600201540361030c576040517f08c379a000000000000000000000000000000000000000000000000000000000815260040161030390610e5e565b60405180910390fd5b5f805f8781526020019081526020015f206040518060800160405290815f8201805461033790610b52565b80601f016020809104026020016040519081016040528092919081815260200182805461036390610b52565b80156103ae5780601f10610385576101008083540402835291602001916103ae565b820191905f5260205f20905b81548152906001019060200180831161039157829003601f168201915b505050505081526020016001820180546103c790610b52565b80601f01602080910402602001604051908101604052809291908181526020018280546103f390610b52565b801561043e5780601f106104155761010080835404028352916020019161043e565b820191905f5260205f20905b81548152906001019060200180831161042157829003601f168201915b50505050508152602001600282015481526020016003820154815250509050805f01518160200151826040015183606001519450945094509450509193509193565b5f602052805f5260405f205f91509050805f01805461049e90610b52565b80601f01602080910402602001604051908101604052809291908181526020018280546104ca90610b52565b80156105155780601f106104ec57610100808354040283529160200191610515565b820191905f5260205f20905b8154815290600101906020018083116104f857829003601f168201915b50505050509080600101805461052a90610b52565b80601f016020809104026020016040519081016040528092919081815260200182805461055690610b52565b80156105a15780601f10610578576101008083540402835291602001916105a1565b820191905f5260205f20905b81548152906001019060200180831161058457829003601f168201915b5050505050908060020154908060030154905084565b5f604051905090565b5f80fd5b5f80fd5b5f819050919050565b6105da816105c8565b81146105e4575f80fd5b50565b5f813590506105f5816105d1565b92915050565b5f80fd5b5f80fd5b5f601f19601f8301169050919050565b7f4e487b71000000000000000000000000000000000000000000000000000000005f52604160045260245ffd5b61064982610603565b810181811067ffffffffffffffff8211171561066857610667610613565b5b80604052505050565b5f61067a6105b7565b90506106868282610640565b919050565b5f67ffffffffffffffff8211156106a5576106a4610613565b5b6106ae82610603565b9050602081019050919050565b828183375f83830152505050565b5f6106db6106d68461068b565b610671565b9050828152602081018484840111156106f7576106f66105ff565b5b6107028482856106bb565b509392505050565b5f82601f83011261071e5761071d6105fb565b5b813561072e8482602086016106c9565b91505092915050565b5f805f805f60a086880312156107505761074f6105c0565b5b5f61075d888289016105e7565b955050602086013567ffffffffffffffff81111561077e5761077d6105c4565b5b61078a8882890161070a565b945050604086013567ffffffffffffffff8111156107ab576107aa6105c4565b5b6107b78882890161070a565b93505060606107c8888289016105e7565b92505060806107d9888289016105e7565b9150509295509295909350565b5f602082840312156107fb576107fa6105c0565b5b5f610808848285016105e7565b91505092915050565b5f81519050919050565b5f82825260208201905092915050565b8281835e5f83830152505050565b5f61084382610811565b61084d818561081b565b935061085d81856020860161082b565b61086681610603565b840191505092915050565b61087a816105c8565b82525050565b5f6080820190508181035f8301526108988187610839565b905081810360208301526108ac8186610839565b90506108bb6040830185610871565b6108c86060830184610871565b95945050505050565b7f4e616d652063616e6e6f7420626520656d7074790000000000000000000000005f82015250565b5f61090560148361081b565b9150610910826108d1565b602082019050919050565b5f6020820190508181035f830152610932816108f9565b9050919050565b7f4d616e7566616374757265722063616e6e6f7420626520656d707479000000005f82015250565b5f61096d601c8361081b565b915061097882610939565b602082019050919050565b5f6020820190508181035f83015261099a81610961565b9050919050565b7f4578706972792064617465206d75737420626520696e207468652066757475725f8201527f6500000000000000000000000000000000000000000000000000000000000000602082015250565b5f6109fb60218361081b565b9150610a06826109a1565b604082019050919050565b5f6020820190508181035f830152610a28816109ef565b9050919050565b7f436f756e74206d7573742062652067726561746572207468616e207a65726f005f82015250565b5f610a63601f8361081b565b9150610a6e82610a2f565b602082019050919050565b5f6020820190508181035f830152610a9081610a57565b9050919050565b7f4d65646963696e652077697468207468697320494420616c72656164792065785f8201527f6973747300000000000000000000000000000000000000000000000000000000602082015250565b5f610af160248361081b565b9150610afc82610a97565b604082019050919050565b5f6020820190508181035f830152610b1e81610ae5565b9050919050565b7f4e487b71000000000000000000000000000000000000000000000000000000005f52602260045260245ffd5b5f6002820490506001821680610b6957607f821691505b602082108103610b7c57610b7b610b25565b5b50919050565b5f819050815f5260205f209050919050565b5f6020601f8301049050919050565b5f82821b905092915050565b5f60088302610bde7fffffffffffffffffffffffffffffffffffffffffffffffffffffffffffffffff82610ba3565b610be88683610ba3565b95508019841693508086168417925050509392505050565b5f819050919050565b5f610c23610c1e610c19846105c8565b610c00565b6105c8565b9050919050565b5f819050919050565b610c3c83610c09565b610c50610c4882610c2a565b848454610baf565b825550505050565b5f90565b610c64610c58565b610c6f818484610c33565b505050565b5b81811015610c9257610c875f82610c5c565b600181019050610c75565b5050565b601f821115610cd757610ca881610b82565b610cb184610b94565b81016020851015610cc0578190505b610cd4610ccc85610b94565b830182610c74565b50505b505050565b5f82821c905092915050565b5f610cf75f1984600802610cdc565b1980831691505092915050565b5f610d0f8383610ce8565b9150826002028217905092915050565b610d2882610811565b67ffffffffffffffff811115610d4157610d40610613565b5b610d4b8254610b52565b610d56828285610c96565b5f60209050601f831160018114610d87575f8415610d75578287015190505b610d7f8582610d04565b865550610de6565b601f198416610d9586610b82565b5f5b82811015610dbc57848901518255600182019150602085019450602081019050610d97565b86831015610dd95784890151610dd5601f891682610ce8565b8355505b6001600288020188555050505b505050505050565b7f4d65646963696e652077697468207468697320494420646f6573206e6f7420655f8201527f7869737400000000000000000000000000000000000000000000000000000000602082015250565b5f610e4860248361081b565b9150610e5382610dee565b604082019050919050565b5f6020820190508181035f830152610e7581610e3c565b905091905056fea2646970667358221220836101ebd85feb38810f2bb9cc177a94c857f1fc9c83f76e25bcbbcc8a8d25f964736f6c63430008190033",
  "immutableReferences": {},
  "source": "// SPDX-License-Identifier: MIT\r\npragma solidity ^0.8.0;\r\n\r\ncontract MedicineTracker {\r\n    // Structure to represent a medicine\r\n    struct Medicine {\r\n        string name;\r\n        string manufacturer;\r\n        uint256 expiryDate;\r\n        uint256 count;\r\n    }\r\n\r\n    // Mapping to store medicines by their ID\r\n    mapping(uint256 => Medicine) public medicines;\r\n\r\n    // Event to emit when a new medicine is added\r\n    event MedicineAdded(uint256 indexed medicineID, string name, string manufacturer, uint256 expiryDate, uint256 count);\r\n\r\n    // Function to add a new medicine\r\n    function addMedicine(uint256 medicineID, string memory name, string memory manufacturer, uint256 expiryDate, uint256 count) external {\r\n        require(bytes(name).length > 0, \"Name cannot be empty\");\r\n        require(bytes(manufacturer).length > 0, \"Manufacturer cannot be empty\");\r\n        require(expiryDate > block.timestamp, \"Expiry date must be in the future\");\r\n        require(count > 0, \"Count must be greater than zero\");\r\n        require(medicines[medicineID].expiryDate == 0, \"Medicine with this ID already exists\");\r\n\r\n        Medicine storage newMedicine = medicines[medicineID];\r\n        newMedicine.name = name;\r\n        newMedicine.manufacturer = manufacturer;\r\n        newMedicine.expiryDate = expiryDate;\r\n        newMedicine.count = count;\r\n\r\n        emit MedicineAdded(medicineID, name, manufacturer, expiryDate, count);\r\n    }\r\n\r\n    // Function to retrieve medicine details by ID\r\n    function getMedicineById(uint256 medicineID) external view returns (string memory name, string memory manufacturer, uint256 expiryDate, uint256 count) {\r\n        require(medicines[medicineID].expiryDate != 0, \"Medicine with this ID does not exist\");\r\n        \r\n        Medicine memory medicine = medicines[medicineID];\r\n        return (medicine.name, medicine.manufacturer, medicine.expiryDate, medicine.count);\r\n    }\r\n    // Add more functions as needed\r\n}\r\n",
  "sourcePath": "E:\\priyanka\\medicine\\contracts\\MedicineTracking.sol",
  "compiler": {
    "name": "solc",
    "version": "0.8.25+commit.b61c2a91.Emscripten.clang"
  },
  "schemaVersion": "3.4.16",
  "updatedAt": "2024-04-07T12:19:31.908Z",
  "devdoc": {
    "kind": "dev",
    "methods": {},
    "version": 1
  },
  "userdoc": {
    "kind": "user",
    "methods": {},
    "version": 1
  }
}